{
  "_format": "hh-sol-artifact-1",
  "contractName": "Bacchus",
  "sourceName": "contracts/Bacchus.sol",
  "abi": [
    {
      "anonymous": false,
      "inputs": [
        {
          "indexed": false,
          "internalType": "uint256",
          "name": "eventId",
          "type": "uint256"
        },
        {
          "indexed": false,
          "internalType": "string",
          "name": "name",
          "type": "string"
        },
        {
          "indexed": false,
          "internalType": "string",
          "name": "description",
          "type": "string"
        }
      ],
      "name": "NewEvent",
      "type": "event"
    },
    {
      "inputs": [
        {
          "internalType": "string",
          "name": "_name",
          "type": "string"
        },
        {
          "internalType": "string",
          "name": "_description",
          "type": "string"
        },
        {
          "internalType": "string",
          "name": "_location",
          "type": "string"
        },
        {
          "internalType": "string",
          "name": "_date",
          "type": "string"
        }
      ],
      "name": "_createEvent",
      "outputs": [],
      "stateMutability": "nonpayable",
      "type": "function"
    },
    {
      "inputs": [
        {
          "internalType": "uint256",
          "name": "_eventId",
          "type": "uint256"
        }
      ],
      "name": "_getEvent",
      "outputs": [
        {
          "components": [
            {
              "internalType": "string",
              "name": "name",
              "type": "string"
            },
            {
              "internalType": "string",
              "name": "description",
              "type": "string"
            },
            {
              "internalType": "string",
              "name": "location",
              "type": "string"
            },
            {
              "internalType": "string",
              "name": "date",
              "type": "string"
            },
            {
              "internalType": "uint16",
              "name": "reputation",
              "type": "uint16"
            },
            {
              "internalType": "bool",
              "name": "closed",
              "type": "bool"
            }
          ],
          "internalType": "struct Bacchus.Event",
          "name": "",
          "type": "tuple"
        }
      ],
      "stateMutability": "view",
      "type": "function"
    },
    {
      "inputs": [
        {
          "internalType": "uint256",
          "name": "",
          "type": "uint256"
        }
      ],
      "name": "eventToOwner",
      "outputs": [
        {
          "internalType": "address",
          "name": "",
          "type": "address"
        }
      ],
      "stateMutability": "view",
      "type": "function"
    },
    {
      "inputs": [
        {
          "internalType": "uint256",
          "name": "",
          "type": "uint256"
        }
      ],
      "name": "events",
      "outputs": [
        {
          "internalType": "string",
          "name": "name",
          "type": "string"
        },
        {
          "internalType": "string",
          "name": "description",
          "type": "string"
        },
        {
          "internalType": "string",
          "name": "location",
          "type": "string"
        },
        {
          "internalType": "string",
          "name": "date",
          "type": "string"
        },
        {
          "internalType": "uint16",
          "name": "reputation",
          "type": "uint16"
        },
        {
          "internalType": "bool",
          "name": "closed",
          "type": "bool"
        }
      ],
      "stateMutability": "view",
      "type": "function"
    }
  ],
  "bytecode": "0x608060405234801561001057600080fd5b506112a0806100206000396000f3fe608060405234801561001057600080fd5b506004361061004c5760003560e01c80630b791430146100515780633ff962221461008657806374dae93f146100b6578063f1aa9340146100e6575b600080fd5b61006b600480360381019061006691906109a4565b610102565b60405161007d96959493929190610a99565b60405180910390f35b6100a0600480360381019061009b91906109a4565b610389565b6040516100ad9190610b57565b60405180910390f35b6100d060048036038101906100cb91906109a4565b6103bc565b6040516100dd9190610c78565b60405180910390f35b61010060048036038101906100fb9190610dcf565b6106b7565b005b6000818154811061011257600080fd5b906000526020600020906005020160009150905080600001805461013590610ed5565b80601f016020809104026020016040519081016040528092919081815260200182805461016190610ed5565b80156101ae5780601f10610183576101008083540402835291602001916101ae565b820191906000526020600020905b81548152906001019060200180831161019157829003601f168201915b5050505050908060010180546101c390610ed5565b80601f01602080910402602001604051908101604052809291908181526020018280546101ef90610ed5565b801561023c5780601f106102115761010080835404028352916020019161023c565b820191906000526020600020905b81548152906001019060200180831161021f57829003601f168201915b50505050509080600201805461025190610ed5565b80601f016020809104026020016040519081016040528092919081815260200182805461027d90610ed5565b80156102ca5780601f1061029f576101008083540402835291602001916102ca565b820191906000526020600020905b8154815290600101906020018083116102ad57829003601f168201915b5050505050908060030180546102df90610ed5565b80601f016020809104026020016040519081016040528092919081815260200182805461030b90610ed5565b80156103585780601f1061032d57610100808354040283529160200191610358565b820191906000526020600020905b81548152906001019060200180831161033b57829003601f168201915b5050505050908060040160009054906101000a900461ffff16908060040160029054906101000a900460ff16905086565b60016020528060005260406000206000915054906101000a900473ffffffffffffffffffffffffffffffffffffffff1681565b6103c461091e565b6103d86774e9a5b7d237901d60c01b610905565b6103ec67533cd8d4072eac6460c01b610905565b610400677588d99c6844926760c01b610905565b6000828154811061041457610413610f06565b5b90600052602060002090600502016040518060c001604052908160008201805461043d90610ed5565b80601f016020809104026020016040519081016040528092919081815260200182805461046990610ed5565b80156104b65780601f1061048b576101008083540402835291602001916104b6565b820191906000526020600020905b81548152906001019060200180831161049957829003601f168201915b505050505081526020016001820180546104cf90610ed5565b80601f01602080910402602001604051908101604052809291908181526020018280546104fb90610ed5565b80156105485780601f1061051d57610100808354040283529160200191610548565b820191906000526020600020905b81548152906001019060200180831161052b57829003601f168201915b5050505050815260200160028201805461056190610ed5565b80601f016020809104026020016040519081016040528092919081815260200182805461058d90610ed5565b80156105da5780601f106105af576101008083540402835291602001916105da565b820191906000526020600020905b8154815290600101906020018083116105bd57829003601f168201915b505050505081526020016003820180546105f390610ed5565b80601f016020809104026020016040519081016040528092919081815260200182805461061f90610ed5565b801561066c5780601f106106415761010080835404028352916020019161066c565b820191906000526020600020905b81548152906001019060200180831161064f57829003601f168201915b505050505081526020016004820160009054906101000a900461ffff1661ffff1661ffff1681526020016004820160029054906101000a900460ff1615151515815250509050919050565b6106cb673d01af054b9a02f060c01b610905565b6106df67f098d54c4162398d60c01b610905565b6106f367423cbb6bc8f612c660c01b610905565b60006040518060c00160405280868152602001858152602001848152602001838152602001600061ffff168152602001600015158152509080600181540180825580915050600190039060005260206000209060050201600090919091909150600082015181600001908161076891906110e1565b50602082015181600101908161077e91906110e1565b50604082015181600201908161079491906110e1565b5060608201518160030190816107aa91906110e1565b5060808201518160040160006101000a81548161ffff021916908361ffff16021790555060a08201518160040160026101000a81548160ff0219169083151502179055505050610804670ce0af18ed926ad760c01b610905565b61081867aa5e162e9f80ed8d60c01b610905565b6000610833600160008054905061090890919063ffffffff16565b9050610849679a74767470e94d3860c01b610905565b336001600083815260200190815260200160002060006101000a81548173ffffffffffffffffffffffffffffffffffffffff021916908373ffffffffffffffffffffffffffffffffffffffff1602179055506108af676702dde35079455560c01b610905565b6108c3674c4935b7c22f139360c01b610905565b7fc755947f020173d316cc2bd614f227aaa2cc19ed844951a652b8dfa9af6819468186866040516108f6939291906111c2565b60405180910390a15050505050565b50565b600081836109169190611236565b905092915050565b6040518060c0016040528060608152602001606081526020016060815260200160608152602001600061ffff1681526020016000151581525090565b6000604051905090565b600080fd5b600080fd5b6000819050919050565b6109818161096e565b811461098c57600080fd5b50565b60008135905061099e81610978565b92915050565b6000602082840312156109ba576109b9610964565b5b60006109c88482850161098f565b91505092915050565b600081519050919050565b600082825260208201905092915050565b60005b83811015610a0b5780820151818401526020810190506109f0565b60008484015250505050565b6000601f19601f8301169050919050565b6000610a33826109d1565b610a3d81856109dc565b9350610a4d8185602086016109ed565b610a5681610a17565b840191505092915050565b600061ffff82169050919050565b610a7881610a61565b82525050565b60008115159050919050565b610a9381610a7e565b82525050565b600060c0820190508181036000830152610ab38189610a28565b90508181036020830152610ac78188610a28565b90508181036040830152610adb8187610a28565b90508181036060830152610aef8186610a28565b9050610afe6080830185610a6f565b610b0b60a0830184610a8a565b979650505050505050565b600073ffffffffffffffffffffffffffffffffffffffff82169050919050565b6000610b4182610b16565b9050919050565b610b5181610b36565b82525050565b6000602082019050610b6c6000830184610b48565b92915050565b600082825260208201905092915050565b6000610b8e826109d1565b610b988185610b72565b9350610ba88185602086016109ed565b610bb181610a17565b840191505092915050565b610bc581610a61565b82525050565b610bd481610a7e565b82525050565b600060c0830160008301518482036000860152610bf78282610b83565b91505060208301518482036020860152610c118282610b83565b91505060408301518482036040860152610c2b8282610b83565b91505060608301518482036060860152610c458282610b83565b9150506080830151610c5a6080860182610bbc565b5060a0830151610c6d60a0860182610bcb565b508091505092915050565b60006020820190508181036000830152610c928184610bda565b905092915050565b600080fd5b600080fd5b7f4e487b7100000000000000000000000000000000000000000000000000000000600052604160045260246000fd5b610cdc82610a17565b810181811067ffffffffffffffff82111715610cfb57610cfa610ca4565b5b80604052505050565b6000610d0e61095a565b9050610d1a8282610cd3565b919050565b600067ffffffffffffffff821115610d3a57610d39610ca4565b5b610d4382610a17565b9050602081019050919050565b82818337600083830152505050565b6000610d72610d6d84610d1f565b610d04565b905082815260208101848484011115610d8e57610d8d610c9f565b5b610d99848285610d50565b509392505050565b600082601f830112610db657610db5610c9a565b5b8135610dc6848260208601610d5f565b91505092915050565b60008060008060808587031215610de957610de8610964565b5b600085013567ffffffffffffffff811115610e0757610e06610969565b5b610e1387828801610da1565b945050602085013567ffffffffffffffff811115610e3457610e33610969565b5b610e4087828801610da1565b935050604085013567ffffffffffffffff811115610e6157610e60610969565b5b610e6d87828801610da1565b925050606085013567ffffffffffffffff811115610e8e57610e8d610969565b5b610e9a87828801610da1565b91505092959194509250565b7f4e487b7100000000000000000000000000000000000000000000000000000000600052602260045260246000fd5b60006002820490506001821680610eed57607f821691505b602082108103610f0057610eff610ea6565b5b50919050565b7f4e487b7100000000000000000000000000000000000000000000000000000000600052603260045260246000fd5b60008190508160005260206000209050919050565b60006020601f8301049050919050565b600082821b905092915050565b600060088302610f977fffffffffffffffffffffffffffffffffffffffffffffffffffffffffffffffff82610f5a565b610fa18683610f5a565b95508019841693508086168417925050509392505050565b6000819050919050565b6000610fde610fd9610fd48461096e565b610fb9565b61096e565b9050919050565b6000819050919050565b610ff883610fc3565b61100c61100482610fe5565b848454610f67565b825550505050565b600090565b611021611014565b61102c818484610fef565b505050565b5b8181101561105057611045600082611019565b600181019050611032565b5050565b601f8211156110955761106681610f35565b61106f84610f4a565b8101602085101561107e578190505b61109261108a85610f4a565b830182611031565b50505b505050565b600082821c905092915050565b60006110b86000198460080261109a565b1980831691505092915050565b60006110d183836110a7565b9150826002028217905092915050565b6110ea826109d1565b67ffffffffffffffff81111561110357611102610ca4565b5b61110d8254610ed5565b611118828285611054565b600060209050601f83116001811461114b5760008415611139578287015190505b61114385826110c5565b8655506111ab565b601f19841661115986610f35565b60005b828110156111815784890151825560018201915060208501945060208101905061115c565b8683101561119e578489015161119a601f8916826110a7565b8355505b6001600288020188555050505b505050505050565b6111bc8161096e565b82525050565b60006060820190506111d760008301866111b3565b81810360208301526111e98185610a28565b905081810360408301526111fd8184610a28565b9050949350505050565b7f4e487b7100000000000000000000000000000000000000000000000000000000600052601160045260246000fd5b60006112418261096e565b915061124c8361096e565b925082820390508181111561126457611263611207565b5b9291505056fea264697066735822122098411e5c97c36faf7c09dcfceb90f65d2e7df9b3ffd24522554d679a108e1f6f64736f6c63430008110033",
  "linkReferences": {},
  "deployedLinkReferences": {}
}