{
  "_format": "hh-sol-artifact-1",
  "contractName": "Bacchus",
  "sourceName": "contracts/Bacchus.sol",
  "abi": [
    {
      "anonymous": false,
      "inputs": [
        {
          "indexed": false,
          "internalType": "uint256",
          "name": "eventId",
          "type": "uint256"
        },
        {
          "indexed": false,
          "internalType": "string",
          "name": "name",
          "type": "string"
        },
        {
          "indexed": false,
          "internalType": "string",
          "name": "description",
          "type": "string"
        }
      ],
      "name": "NewEvent",
      "type": "event"
    },
    {
      "inputs": [
        {
          "internalType": "string",
          "name": "_name",
          "type": "string"
        },
        {
          "internalType": "string",
          "name": "_description",
          "type": "string"
        },
        {
          "internalType": "string",
          "name": "_location",
          "type": "string"
        },
        {
          "internalType": "string",
          "name": "_date",
          "type": "string"
        }
      ],
      "name": "_createEvent",
      "outputs": [],
      "stateMutability": "nonpayable",
      "type": "function"
    },
    {
      "inputs": [
        {
          "internalType": "uint256",
          "name": "_eventId",
          "type": "uint256"
        }
      ],
      "name": "_getEvent",
      "outputs": [
        {
          "components": [
            {
              "internalType": "string",
              "name": "name",
              "type": "string"
            },
            {
              "internalType": "string",
              "name": "description",
              "type": "string"
            },
            {
              "internalType": "string",
              "name": "location",
              "type": "string"
            },
            {
              "internalType": "string",
              "name": "date",
              "type": "string"
            },
            {
              "internalType": "uint16",
              "name": "reputation",
              "type": "uint16"
            },
            {
              "internalType": "bool",
              "name": "closed",
              "type": "bool"
            }
          ],
          "internalType": "struct Bacchus.Event",
          "name": "",
          "type": "tuple"
        }
      ],
      "stateMutability": "view",
      "type": "function"
    },
    {
      "inputs": [
        {
          "internalType": "uint256",
          "name": "",
          "type": "uint256"
        }
      ],
      "name": "eventToOwner",
      "outputs": [
        {
          "internalType": "address",
          "name": "",
          "type": "address"
        }
      ],
      "stateMutability": "view",
      "type": "function"
    },
    {
      "inputs": [
        {
          "internalType": "uint256",
          "name": "",
          "type": "uint256"
        }
      ],
      "name": "events",
      "outputs": [
        {
          "internalType": "string",
          "name": "name",
          "type": "string"
        },
        {
          "internalType": "string",
          "name": "description",
          "type": "string"
        },
        {
          "internalType": "string",
          "name": "location",
          "type": "string"
        },
        {
          "internalType": "string",
          "name": "date",
          "type": "string"
        },
        {
          "internalType": "uint16",
          "name": "reputation",
          "type": "uint16"
        },
        {
          "internalType": "bool",
          "name": "closed",
          "type": "bool"
        }
      ],
      "stateMutability": "view",
      "type": "function"
    }
  ],
  "bytecode": "0x608060405234801561001057600080fd5b506111c1806100206000396000f3fe608060405234801561001057600080fd5b506004361061004c5760003560e01c80630b791430146100515780633ff962221461008657806374dae93f146100b6578063f1aa9340146100e6575b600080fd5b61006b600480360381019061006691906108c5565b610102565b60405161007d969594939291906109ba565b60405180910390f35b6100a0600480360381019061009b91906108c5565b610389565b6040516100ad9190610a78565b60405180910390f35b6100d060048036038101906100cb91906108c5565b6103bc565b6040516100dd9190610b99565b60405180910390f35b61010060048036038101906100fb9190610cf0565b61067b565b005b6000818154811061011257600080fd5b906000526020600020906005020160009150905080600001805461013590610df6565b80601f016020809104026020016040519081016040528092919081815260200182805461016190610df6565b80156101ae5780601f10610183576101008083540402835291602001916101ae565b820191906000526020600020905b81548152906001019060200180831161019157829003601f168201915b5050505050908060010180546101c390610df6565b80601f01602080910402602001604051908101604052809291908181526020018280546101ef90610df6565b801561023c5780601f106102115761010080835404028352916020019161023c565b820191906000526020600020905b81548152906001019060200180831161021f57829003601f168201915b50505050509080600201805461025190610df6565b80601f016020809104026020016040519081016040528092919081815260200182805461027d90610df6565b80156102ca5780601f1061029f576101008083540402835291602001916102ca565b820191906000526020600020905b8154815290600101906020018083116102ad57829003601f168201915b5050505050908060030180546102df90610df6565b80601f016020809104026020016040519081016040528092919081815260200182805461030b90610df6565b80156103585780601f1061032d57610100808354040283529160200191610358565b820191906000526020600020905b81548152906001019060200180831161033b57829003601f168201915b5050505050908060040160009054906101000a900461ffff16908060040160029054906101000a900460ff16905086565b60016020528060005260406000206000915054906101000a900473ffffffffffffffffffffffffffffffffffffffff1681565b6103c461083f565b600082815481106103d8576103d7610e27565b5b90600052602060002090600502016040518060c001604052908160008201805461040190610df6565b80601f016020809104026020016040519081016040528092919081815260200182805461042d90610df6565b801561047a5780601f1061044f5761010080835404028352916020019161047a565b820191906000526020600020905b81548152906001019060200180831161045d57829003601f168201915b5050505050815260200160018201805461049390610df6565b80601f01602080910402602001604051908101604052809291908181526020018280546104bf90610df6565b801561050c5780601f106104e15761010080835404028352916020019161050c565b820191906000526020600020905b8154815290600101906020018083116104ef57829003601f168201915b5050505050815260200160028201805461052590610df6565b80601f016020809104026020016040519081016040528092919081815260200182805461055190610df6565b801561059e5780601f106105735761010080835404028352916020019161059e565b820191906000526020600020905b81548152906001019060200180831161058157829003601f168201915b505050505081526020016003820180546105b790610df6565b80601f01602080910402602001604051908101604052809291908181526020018280546105e390610df6565b80156106305780601f1061060557610100808354040283529160200191610630565b820191906000526020600020905b81548152906001019060200180831161061357829003601f168201915b505050505081526020016004820160009054906101000a900461ffff1661ffff1661ffff1681526020016004820160029054906101000a900460ff1615151515815250509050919050565b60006040518060c00160405280868152602001858152602001848152602001838152602001600061ffff16815260200160001515815250908060018154018082558091505060019003906000526020600020906005020160009091909190915060008201518160000190816106f09190611002565b5060208201518160010190816107069190611002565b50604082015181600201908161071c9190611002565b5060608201518160030190816107329190611002565b5060808201518160040160006101000a81548161ffff021916908361ffff16021790555060a08201518160040160026101000a81548160ff02191690831515021790555050506000610793600160008054905061082990919063ffffffff16565b9050336001600083815260200190815260200160002060006101000a81548173ffffffffffffffffffffffffffffffffffffffff021916908373ffffffffffffffffffffffffffffffffffffffff1602179055507fc755947f020173d316cc2bd614f227aaa2cc19ed844951a652b8dfa9af68194681868660405161081a939291906110e3565b60405180910390a15050505050565b600081836108379190611157565b905092915050565b6040518060c0016040528060608152602001606081526020016060815260200160608152602001600061ffff1681526020016000151581525090565b6000604051905090565b600080fd5b600080fd5b6000819050919050565b6108a28161088f565b81146108ad57600080fd5b50565b6000813590506108bf81610899565b92915050565b6000602082840312156108db576108da610885565b5b60006108e9848285016108b0565b91505092915050565b600081519050919050565b600082825260208201905092915050565b60005b8381101561092c578082015181840152602081019050610911565b60008484015250505050565b6000601f19601f8301169050919050565b6000610954826108f2565b61095e81856108fd565b935061096e81856020860161090e565b61097781610938565b840191505092915050565b600061ffff82169050919050565b61099981610982565b82525050565b60008115159050919050565b6109b48161099f565b82525050565b600060c08201905081810360008301526109d48189610949565b905081810360208301526109e88188610949565b905081810360408301526109fc8187610949565b90508181036060830152610a108186610949565b9050610a1f6080830185610990565b610a2c60a08301846109ab565b979650505050505050565b600073ffffffffffffffffffffffffffffffffffffffff82169050919050565b6000610a6282610a37565b9050919050565b610a7281610a57565b82525050565b6000602082019050610a8d6000830184610a69565b92915050565b600082825260208201905092915050565b6000610aaf826108f2565b610ab98185610a93565b9350610ac981856020860161090e565b610ad281610938565b840191505092915050565b610ae681610982565b82525050565b610af58161099f565b82525050565b600060c0830160008301518482036000860152610b188282610aa4565b91505060208301518482036020860152610b328282610aa4565b91505060408301518482036040860152610b4c8282610aa4565b91505060608301518482036060860152610b668282610aa4565b9150506080830151610b7b6080860182610add565b5060a0830151610b8e60a0860182610aec565b508091505092915050565b60006020820190508181036000830152610bb38184610afb565b905092915050565b600080fd5b600080fd5b7f4e487b7100000000000000000000000000000000000000000000000000000000600052604160045260246000fd5b610bfd82610938565b810181811067ffffffffffffffff82111715610c1c57610c1b610bc5565b5b80604052505050565b6000610c2f61087b565b9050610c3b8282610bf4565b919050565b600067ffffffffffffffff821115610c5b57610c5a610bc5565b5b610c6482610938565b9050602081019050919050565b82818337600083830152505050565b6000610c93610c8e84610c40565b610c25565b905082815260208101848484011115610caf57610cae610bc0565b5b610cba848285610c71565b509392505050565b600082601f830112610cd757610cd6610bbb565b5b8135610ce7848260208601610c80565b91505092915050565b60008060008060808587031215610d0a57610d09610885565b5b600085013567ffffffffffffffff811115610d2857610d2761088a565b5b610d3487828801610cc2565b945050602085013567ffffffffffffffff811115610d5557610d5461088a565b5b610d6187828801610cc2565b935050604085013567ffffffffffffffff811115610d8257610d8161088a565b5b610d8e87828801610cc2565b925050606085013567ffffffffffffffff811115610daf57610dae61088a565b5b610dbb87828801610cc2565b91505092959194509250565b7f4e487b7100000000000000000000000000000000000000000000000000000000600052602260045260246000fd5b60006002820490506001821680610e0e57607f821691505b602082108103610e2157610e20610dc7565b5b50919050565b7f4e487b7100000000000000000000000000000000000000000000000000000000600052603260045260246000fd5b60008190508160005260206000209050919050565b60006020601f8301049050919050565b600082821b905092915050565b600060088302610eb87fffffffffffffffffffffffffffffffffffffffffffffffffffffffffffffffff82610e7b565b610ec28683610e7b565b95508019841693508086168417925050509392505050565b6000819050919050565b6000610eff610efa610ef58461088f565b610eda565b61088f565b9050919050565b6000819050919050565b610f1983610ee4565b610f2d610f2582610f06565b848454610e88565b825550505050565b600090565b610f42610f35565b610f4d818484610f10565b505050565b5b81811015610f7157610f66600082610f3a565b600181019050610f53565b5050565b601f821115610fb657610f8781610e56565b610f9084610e6b565b81016020851015610f9f578190505b610fb3610fab85610e6b565b830182610f52565b50505b505050565b600082821c905092915050565b6000610fd960001984600802610fbb565b1980831691505092915050565b6000610ff28383610fc8565b9150826002028217905092915050565b61100b826108f2565b67ffffffffffffffff81111561102457611023610bc5565b5b61102e8254610df6565b611039828285610f75565b600060209050601f83116001811461106c576000841561105a578287015190505b6110648582610fe6565b8655506110cc565b601f19841661107a86610e56565b60005b828110156110a25784890151825560018201915060208501945060208101905061107d565b868310156110bf57848901516110bb601f891682610fc8565b8355505b6001600288020188555050505b505050505050565b6110dd8161088f565b82525050565b60006060820190506110f860008301866110d4565b818103602083015261110a8185610949565b9050818103604083015261111e8184610949565b9050949350505050565b7f4e487b7100000000000000000000000000000000000000000000000000000000600052601160045260246000fd5b60006111628261088f565b915061116d8361088f565b925082820390508181111561118557611184611128565b5b9291505056fea26469706673582212202c9cc82f6c17d205c5a91c073cee6b609c70f5664b8ddf5e92b1fffb2e3b4ac964736f6c63430008110033",
  "linkReferences": {},
  "deployedLinkReferences": {}
}